{
  "abi": [
    {
      "inputs": [],
      "name": "StakeContract__TransferFailed",
      "type": "error"
    },
    {
      "inputs": [
        {
          "internalType": "address",
          "name": "",
          "type": "address"
        }
      ],
      "name": "s_balances",
      "outputs": [
        {
          "internalType": "uint256",
          "name": "",
          "type": "uint256"
        }
      ],
      "stateMutability": "view",
      "type": "function"
    },
    {
      "inputs": [
        {
          "internalType": "uint256",
          "name": "amount",
          "type": "uint256"
        },
        {
          "internalType": "address",
          "name": "token",
          "type": "address"
        }
      ],
      "name": "stake",
      "outputs": [
        {
          "internalType": "bool",
          "name": "",
          "type": "bool"
        }
      ],
      "stateMutability": "nonpayable",
      "type": "function"
    }
  ],
  "bytecode": {
    "object": "0x608060405234801561001057600080fd5b50610240806100206000396000f3fe608060405234801561001057600080fd5b50600436106100365760003560e01c80637acb77571461003b578063ab32eb6914610063575b600080fd5b61004e61004936600461017b565b610091565b60405190151581526020015b60405180910390f35b6100836100713660046101a7565b60006020819052908152604090205481565b60405190815260200161005a565b336000908152602081905260408120546100ac9084906101c2565b336000818152602081905260408082209390935591516323b872dd60e01b81526004810191909152306024820152604481018590526001600160a01b038416906323b872dd906064016020604051808303816000875af1158015610114573d6000803e3d6000fd5b505050506040513d601f19601f8201168201806040525081019061013891906101e8565b9050806101585760405163558ea54160e11b815260040160405180910390fd5b9392505050565b80356001600160a01b038116811461017657600080fd5b919050565b6000806040838503121561018e57600080fd5b8235915061019e6020840161015f565b90509250929050565b6000602082840312156101b957600080fd5b6101588261015f565b600082198211156101e357634e487b7160e01b600052601160045260246000fd5b500190565b6000602082840312156101fa57600080fd5b8151801515811461015857600080fdfea26469706673582212209689e8d70cdc624ca9ce379e0978354a1663dc9726c213ba3bdc78021726da8e64736f6c634300080d0033",
    "linkReferences": {}
  }
}